

Microchip MPLAB XC8 Assembler V2.10 build 88905656 
                                                                                               Tue Apr 21 14:04:23 2020

Microchip MPLAB XC8 C Compiler v2.10 (Free license) build 20190730164152 Og1 
     1                           	processor	16F1619
     2                           	opt	pw 120
     3                           	opt	flic
     4                           	psect	cinit,global,class=CODE,merge=1,delta=2
     5                           	psect	cstackCOMMON,global,class=COMMON,space=1,delta=1
     6                           	psect	maintext,global,class=CODE,merge=1,split=1,delta=2
     7                           	dabs	1,0x7E,2
     8  0000                     
     9                           ; Version 2.10
    10                           ; Generated 31/07/2019 GMT
    11                           ; 
    12                           ; Copyright © 2019, Microchip Technology Inc. and its subsidiaries ("Microchip")
    13                           ; All rights reserved.
    14                           ; 
    15                           ; This software is developed by Microchip Technology Inc. and its subsidiaries ("Microch
      +                          ip").
    16                           ; 
    17                           ; Redistribution and use in source and binary forms, with or without modification, are
    18                           ; permitted provided that the following conditions are met:
    19                           ; 
    20                           ;     1. Redistributions of source code must retain the above copyright notice, this lis
      +                          t of
    21                           ;        conditions and the following disclaimer.
    22                           ; 
    23                           ;     2. Redistributions in binary form must reproduce the above copyright notice, this 
      +                          list
    24                           ;        of conditions and the following disclaimer in the documentation and/or other
    25                           ;        materials provided with the distribution.
    26                           ; 
    27                           ;     3. Microchip's name may not be used to endorse or promote products derived from th
      +                          is
    28                           ;        software without specific prior written permission.
    29                           ; 
    30                           ; THIS SOFTWARE IS PROVIDED BY MICROCHIP "AS IS" AND ANY EXPRESS OR IMPLIED WARRANTIES,
    31                           ; INCLUDING, BUT NOT LIMITED TO, THE IMPLIED WARRANTIES OF MERCHANTABILITY AND FITNESS F
      +                          OR
    32                           ; PURPOSE ARE DISCLAIMED.  IN NO EVENT SHALL MICROCHIP BE LIABLE FOR ANY DIRECT, INDIREC
      +                          T,
    33                           ; INCIDENTAL, SPECIAL, EXEMPLARY, OR CONSEQUENTIAL DAMAGES (INCLUDING BUT NOT LIMITED TO
    34                           ; PROCUREMENT OF SUBSTITUTE GOODS OR SERVICES; LOSS OF USE, DATA OR PROFITS; OR BUSINESS
    35                           ; INTERRUPTION) HOWSOEVER CAUSED AND ON ANY THEORY OF LIABILITY, WHETHER IN CONTRACT, ST
      +                          RICT
    36                           ; LIABILITY, OR TORT (INCLUDING NEGLIGENCE OR OTHERWISE) ARISING IN ANY WAY OUT OF THE U
      +                          SE OF
    37                           ; THIS SOFTWARE, EVEN IF ADVISED OF THE POSSIBILITY OF SUCH DAMAGE.
    38                           ; 
    39                           ; 
    40                           ; Code-generator required, PIC16F1619 Definitions
    41                           ; 
    42                           ; SFR Addresses
    43  0000                     	;# 
    44  0001                     	;# 
    45  0002                     	;# 
    46  0003                     	;# 
    47  0004                     	;# 
    48  0005                     	;# 
    49  0006                     	;# 
    50  0007                     	;# 
    51  0008                     	;# 
    52  0009                     	;# 
    53  000A                     	;# 
    54  000B                     	;# 
    55  000C                     	;# 
    56  000D                     	;# 
    57  000E                     	;# 
    58  0010                     	;# 
    59  0011                     	;# 
    60  0012                     	;# 
    61  0013                     	;# 
    62  0014                     	;# 
    63  0015                     	;# 
    64  0016                     	;# 
    65  0016                     	;# 
    66  0017                     	;# 
    67  0018                     	;# 
    68  0019                     	;# 
    69  001A                     	;# 
    70  001A                     	;# 
    71  001B                     	;# 
    72  001B                     	;# 
    73  001C                     	;# 
    74  001D                     	;# 
    75  001E                     	;# 
    76  001F                     	;# 
    77  008C                     	;# 
    78  008D                     	;# 
    79  008E                     	;# 
    80  0090                     	;# 
    81  0091                     	;# 
    82  0092                     	;# 
    83  0093                     	;# 
    84  0094                     	;# 
    85  0095                     	;# 
    86  0096                     	;# 
    87  0098                     	;# 
    88  0099                     	;# 
    89  009A                     	;# 
    90  009B                     	;# 
    91  009B                     	;# 
    92  009C                     	;# 
    93  009D                     	;# 
    94  009E                     	;# 
    95  009F                     	;# 
    96  010C                     	;# 
    97  010D                     	;# 
    98  010E                     	;# 
    99  0111                     	;# 
   100  0112                     	;# 
   101  0113                     	;# 
   102  0114                     	;# 
   103  0115                     	;# 
   104  0116                     	;# 
   105  0117                     	;# 
   106  0118                     	;# 
   107  0119                     	;# 
   108  011C                     	;# 
   109  018C                     	;# 
   110  018D                     	;# 
   111  018E                     	;# 
   112  0191                     	;# 
   113  0191                     	;# 
   114  0192                     	;# 
   115  0193                     	;# 
   116  0193                     	;# 
   117  0194                     	;# 
   118  0195                     	;# 
   119  0196                     	;# 
   120  0197                     	;# 
   121  0199                     	;# 
   122  0199                     	;# 
   123  0199                     	;# 
   124  019A                     	;# 
   125  019A                     	;# 
   126  019A                     	;# 
   127  019B                     	;# 
   128  019B                     	;# 
   129  019B                     	;# 
   130  019B                     	;# 
   131  019B                     	;# 
   132  019C                     	;# 
   133  019C                     	;# 
   134  019C                     	;# 
   135  019D                     	;# 
   136  019D                     	;# 
   137  019D                     	;# 
   138  019E                     	;# 
   139  019E                     	;# 
   140  019E                     	;# 
   141  019F                     	;# 
   142  019F                     	;# 
   143  019F                     	;# 
   144  019F                     	;# 
   145  019F                     	;# 
   146  020C                     	;# 
   147  020D                     	;# 
   148  020E                     	;# 
   149  0211                     	;# 
   150  0211                     	;# 
   151  0212                     	;# 
   152  0212                     	;# 
   153  0213                     	;# 
   154  0213                     	;# 
   155  0214                     	;# 
   156  0214                     	;# 
   157  0215                     	;# 
   158  0215                     	;# 
   159  0215                     	;# 
   160  0215                     	;# 
   161  0216                     	;# 
   162  0216                     	;# 
   163  0217                     	;# 
   164  0217                     	;# 
   165  028C                     	;# 
   166  028D                     	;# 
   167  028E                     	;# 
   168  0291                     	;# 
   169  0291                     	;# 
   170  0292                     	;# 
   171  0293                     	;# 
   172  0294                     	;# 
   173  0298                     	;# 
   174  0298                     	;# 
   175  0299                     	;# 
   176  029A                     	;# 
   177  029B                     	;# 
   178  029E                     	;# 
   179  030C                     	;# 
   180  030D                     	;# 
   181  030E                     	;# 
   182  038C                     	;# 
   183  038D                     	;# 
   184  038E                     	;# 
   185  0391                     	;# 
   186  0392                     	;# 
   187  0393                     	;# 
   188  0394                     	;# 
   189  0395                     	;# 
   190  0396                     	;# 
   191  0397                     	;# 
   192  0398                     	;# 
   193  0399                     	;# 
   194  040E                     	;# 
   195  0413                     	;# 
   196  0413                     	;# 
   197  0414                     	;# 
   198  0414                     	;# 
   199  0415                     	;# 
   200  0416                     	;# 
   201  0417                     	;# 
   202  0418                     	;# 
   203  041A                     	;# 
   204  041A                     	;# 
   205  041B                     	;# 
   206  041B                     	;# 
   207  041C                     	;# 
   208  041D                     	;# 
   209  041E                     	;# 
   210  041F                     	;# 
   211  0493                     	;# 
   212  0494                     	;# 
   213  0495                     	;# 
   214  0496                     	;# 
   215  049A                     	;# 
   216  049B                     	;# 
   217  049C                     	;# 
   218  049D                     	;# 
   219  058C                     	;# 
   220  058C                     	;# 
   221  058D                     	;# 
   222  058E                     	;# 
   223  058E                     	;# 
   224  058F                     	;# 
   225  0590                     	;# 
   226  0590                     	;# 
   227  0591                     	;# 
   228  0592                     	;# 
   229  0592                     	;# 
   230  0593                     	;# 
   231  0594                     	;# 
   232  0594                     	;# 
   233  0595                     	;# 
   234  0596                     	;# 
   235  0596                     	;# 
   236  0597                     	;# 
   237  0598                     	;# 
   238  0599                     	;# 
   239  059A                     	;# 
   240  059B                     	;# 
   241  059B                     	;# 
   242  059C                     	;# 
   243  059D                     	;# 
   244  060C                     	;# 
   245  060C                     	;# 
   246  060D                     	;# 
   247  060E                     	;# 
   248  060F                     	;# 
   249  060F                     	;# 
   250  0610                     	;# 
   251  0611                     	;# 
   252  0612                     	;# 
   253  0613                     	;# 
   254  0614                     	;# 
   255  0617                     	;# 
   256  0617                     	;# 
   257  0618                     	;# 
   258  0619                     	;# 
   259  061A                     	;# 
   260  061A                     	;# 
   261  061B                     	;# 
   262  061C                     	;# 
   263  0691                     	;# 
   264  0692                     	;# 
   265  0693                     	;# 
   266  0694                     	;# 
   267  0695                     	;# 
   268  0696                     	;# 
   269  0697                     	;# 
   270  0699                     	;# 
   271  069A                     	;# 
   272  0711                     	;# 
   273  0712                     	;# 
   274  0713                     	;# 
   275  0714                     	;# 
   276  0715                     	;# 
   277  0718                     	;# 
   278  0718                     	;# 
   279  0719                     	;# 
   280  071A                     	;# 
   281  071A                     	;# 
   282  071B                     	;# 
   283  071C                     	;# 
   284  071D                     	;# 
   285  0791                     	;# 
   286  0791                     	;# 
   287  0792                     	;# 
   288  0793                     	;# 
   289  0793                     	;# 
   290  0794                     	;# 
   291  0795                     	;# 
   292  0795                     	;# 
   293  0796                     	;# 
   294  0797                     	;# 
   295  0797                     	;# 
   296  0798                     	;# 
   297  0799                     	;# 
   298  079A                     	;# 
   299  080C                     	;# 
   300  080C                     	;# 
   301  080D                     	;# 
   302  080E                     	;# 
   303  080E                     	;# 
   304  080F                     	;# 
   305  0810                     	;# 
   306  0810                     	;# 
   307  0811                     	;# 
   308  0812                     	;# 
   309  0812                     	;# 
   310  0813                     	;# 
   311  0814                     	;# 
   312  0815                     	;# 
   313  0816                     	;# 
   314  0817                     	;# 
   315  0818                     	;# 
   316  0819                     	;# 
   317  081A                     	;# 
   318  081A                     	;# 
   319  081B                     	;# 
   320  081C                     	;# 
   321  081C                     	;# 
   322  081D                     	;# 
   323  088C                     	;# 
   324  088D                     	;# 
   325  088E                     	;# 
   326  088F                     	;# 
   327  088F                     	;# 
   328  0890                     	;# 
   329  0891                     	;# 
   330  0892                     	;# 
   331  0893                     	;# 
   332  0893                     	;# 
   333  0894                     	;# 
   334  0895                     	;# 
   335  0896                     	;# 
   336  0897                     	;# 
   337  0897                     	;# 
   338  0898                     	;# 
   339  0899                     	;# 
   340  0D8C                     	;# 
   341  0D8C                     	;# 
   342  0D8D                     	;# 
   343  0D8E                     	;# 
   344  0D8F                     	;# 
   345  0D8F                     	;# 
   346  0D90                     	;# 
   347  0D91                     	;# 
   348  0D92                     	;# 
   349  0D92                     	;# 
   350  0D93                     	;# 
   351  0D94                     	;# 
   352  0D95                     	;# 
   353  0D95                     	;# 
   354  0D96                     	;# 
   355  0D97                     	;# 
   356  0D98                     	;# 
   357  0D99                     	;# 
   358  0D9A                     	;# 
   359  0D9B                     	;# 
   360  0D9C                     	;# 
   361  0D9D                     	;# 
   362  0D9E                     	;# 
   363  0D9E                     	;# 
   364  0D9F                     	;# 
   365  0DA0                     	;# 
   366  0DA1                     	;# 
   367  0DA1                     	;# 
   368  0DA2                     	;# 
   369  0DA3                     	;# 
   370  0DA4                     	;# 
   371  0DA4                     	;# 
   372  0DA5                     	;# 
   373  0DA6                     	;# 
   374  0DA7                     	;# 
   375  0DA7                     	;# 
   376  0DA8                     	;# 
   377  0DA9                     	;# 
   378  0DAA                     	;# 
   379  0DAB                     	;# 
   380  0DAC                     	;# 
   381  0DAD                     	;# 
   382  0DAE                     	;# 
   383  0DAF                     	;# 
   384  0E0F                     	;# 
   385  0E10                     	;# 
   386  0E11                     	;# 
   387  0E12                     	;# 
   388  0E13                     	;# 
   389  0E14                     	;# 
   390  0E15                     	;# 
   391  0E16                     	;# 
   392  0E17                     	;# 
   393  0E18                     	;# 
   394  0E19                     	;# 
   395  0E1A                     	;# 
   396  0E1B                     	;# 
   397  0E1C                     	;# 
   398  0E1D                     	;# 
   399  0E1E                     	;# 
   400  0E1F                     	;# 
   401  0E20                     	;# 
   402  0E21                     	;# 
   403  0E22                     	;# 
   404  0E23                     	;# 
   405  0E24                     	;# 
   406  0E25                     	;# 
   407  0E26                     	;# 
   408  0E27                     	;# 
   409  0E28                     	;# 
   410  0E29                     	;# 
   411  0E2A                     	;# 
   412  0E2B                     	;# 
   413  0E2C                     	;# 
   414  0E2D                     	;# 
   415  0E2E                     	;# 
   416  0E90                     	;# 
   417  0E91                     	;# 
   418  0E92                     	;# 
   419  0E94                     	;# 
   420  0E95                     	;# 
   421  0E9C                     	;# 
   422  0E9D                     	;# 
   423  0E9E                     	;# 
   424  0E9F                     	;# 
   425  0EA0                     	;# 
   426  0EA1                     	;# 
   427  0EA2                     	;# 
   428  0EA3                     	;# 
   429  0EA4                     	;# 
   430  0EA5                     	;# 
   431  0EA6                     	;# 
   432  0EA7                     	;# 
   433  0F0F                     	;# 
   434  0F10                     	;# 
   435  0F11                     	;# 
   436  0F12                     	;# 
   437  0F13                     	;# 
   438  0F14                     	;# 
   439  0F15                     	;# 
   440  0F16                     	;# 
   441  0F17                     	;# 
   442  0F18                     	;# 
   443  0F19                     	;# 
   444  0F1A                     	;# 
   445  0F1B                     	;# 
   446  0F1C                     	;# 
   447  0F1D                     	;# 
   448  0F1E                     	;# 
   449  0F1F                     	;# 
   450  0F20                     	;# 
   451  0F21                     	;# 
   452  0F22                     	;# 
   453  0F23                     	;# 
   454  0F24                     	;# 
   455  0F25                     	;# 
   456  0F26                     	;# 
   457  0F27                     	;# 
   458  0F28                     	;# 
   459  0F29                     	;# 
   460  0F2A                     	;# 
   461  0F2B                     	;# 
   462  0F2C                     	;# 
   463  0F2D                     	;# 
   464  0F2E                     	;# 
   465  0F2F                     	;# 
   466  0F30                     	;# 
   467  0F31                     	;# 
   468  0F32                     	;# 
   469  0F33                     	;# 
   470  0F34                     	;# 
   471  0F35                     	;# 
   472  0F36                     	;# 
   473  0F37                     	;# 
   474  0FE4                     	;# 
   475  0FE5                     	;# 
   476  0FE6                     	;# 
   477  0FE7                     	;# 
   478  0FE8                     	;# 
   479  0FE9                     	;# 
   480  0FEA                     	;# 
   481  0FEB                     	;# 
   482  0FED                     	;# 
   483  0FEE                     	;# 
   484  0FEF                     	;# 
   485                           
   486                           	psect	cinit
   487  07FD                     start_initialization:	
   488                           ; #config settings
   489                           
   490  07FD                     __initialization:	
   491  07FD                     end_of_initialization:	
   492                           ;End of C runtime variable initialization code
   493                           
   494  07FD                     __end_of__initialization:	
   495  07FD  0020               	movlb	0
   496  07FE  3187  2FFB         	ljmp	_main	;jump to C main() function
   497                           
   498                           	psect	cstackCOMMON
   499  0000                     __pcstackCOMMON:	
   500  0000                     ?_main:	
   501  0000                     ??_main:	
   502                           ; 1 bytes @ 0x0
   503                           
   504                           
   505                           	psect	maintext
   506  07FB                     __pmaintext:	
   507                           ; 1 bytes @ 0x0
   508 ;;
   509 ;;Main: autosize = 0, tempsize = 0, incstack = 0, save=0
   510 ;;
   511 ;; *************** function _main *****************
   512 ;; Defined at:
   513 ;;		line 12 in file "Src/main.c"
   514 ;; Parameters:    Size  Location     Type
   515 ;;		None
   516 ;; Auto vars:     Size  Location     Type
   517 ;;		None
   518 ;; Return value:  Size  Location     Type
   519 ;;                  1    wreg      void 
   520 ;; Registers used:
   521 ;;		None
   522 ;; Tracked objects:
   523 ;;		On entry : B1F/0
   524 ;;		On exit  : 0/0
   525 ;;		Unchanged: 0/0
   526 ;; Data sizes:     COMMON   BANK0   BANK1   BANK2   BANK3   BANK4   BANK5   BANK6   BANK7   BANK8   BANK9  BANK10  BANK1
      +1  BANK12
   527 ;;      Params:         0       0       0       0       0       0       0       0       0       0       0       0       
      +0       0
   528 ;;      Locals:         0       0       0       0       0       0       0       0       0       0       0       0       
      +0       0
   529 ;;      Temps:          0       0       0       0       0       0       0       0       0       0       0       0       
      +0       0
   530 ;;      Totals:         0       0       0       0       0       0       0       0       0       0       0       0       
      +0       0
   531 ;;Total ram usage:        0 bytes
   532 ;; This function calls:
   533 ;;		Nothing
   534 ;; This function is called by:
   535 ;;		Startup code after reset
   536 ;; This function uses a non-reentrant model
   537 ;;
   538                           
   539                           
   540                           ;psect for function _main
   541  07FB                     _main:	
   542  07FB                     l514:	
   543                           ;incstack = 0
   544                           ; Regs used in _main: []
   545                           
   546  07FB                     l5:	
   547                           ;main.c: 13: return;
   548                           
   549  07FB  3180  2802         	ljmp	start
   550  07FD                     __end_of_main:	
   551  007E                     btemp	set	126	;btemp
   552  007E                     wtemp0	set	126


Data Sizes:
    Strings     0
    Constant    0
    Data        0
    BSS         0
    Persistent  32
    Stack       0

Auto Spaces:
    Space          Size  Autos    Used
    COMMON           14      0       0
    BANK0            80      0       0
    BANK1            80      0       0
    BANK2            80      0       0
    BANK3            80      0       0
    BANK4            80      0       0
    BANK5            80      0       0
    BANK6            80      0       0
    BANK7            80      0       0
    BANK8            80      0       0
    BANK9            80      0       0
    BANK10           80      0       0
    BANK11           80      0       0
    BANK12           48      0       0

Pointer List with Targets:

    None.

Critical Paths under _main in COMMON

    None.

Critical Paths under _main in BANK0

    None.

Critical Paths under _main in BANK1

    None.

Critical Paths under _main in BANK2

    None.

Critical Paths under _main in BANK3

    None.

Critical Paths under _main in BANK4

    None.

Critical Paths under _main in BANK5

    None.

Critical Paths under _main in BANK6

    None.

Critical Paths under _main in BANK7

    None.

Critical Paths under _main in BANK8

    None.

Critical Paths under _main in BANK9

    None.

Critical Paths under _main in BANK10

    None.

Critical Paths under _main in BANK11

    None.

Critical Paths under _main in BANK12

    None.

Call Graph Tables:

 ---------------------------------------------------------------------------------
 (Depth) Function   	        Calls       Base Space   Used Autos Params    Refs
 ---------------------------------------------------------------------------------
 (0) _main                                                 0     0      0       0
 ---------------------------------------------------------------------------------
 Estimated maximum stack depth 0
 ---------------------------------------------------------------------------------

 Call Graph Graphs:

 _main (ROOT)

 Address spaces:
Name               Size   Autos  Total    Cost      Usage
BIGRAM             3F0      0       0       0        0.0%
NULL                 0      0       0       0        0.0%
CODE                 0      0       0       0        0.0%
BITCOMMON            E      0       0       1        0.0%
BITSFR0              0      0       0       1        0.0%
SFR0                 0      0       0       1        0.0%
COMMON               E      0       0       2        0.0%
BITSFR1              0      0       0       2        0.0%
SFR1                 0      0       0       2        0.0%
BITSFR2              0      0       0       3        0.0%
SFR2                 0      0       0       3        0.0%
STACK                0      0       0       3        0.0%
BITBANK0            50      0       0       4        0.0%
BITSFR3              0      0       0       4        0.0%
SFR3                 0      0       0       4        0.0%
BANK0               50      0       0       5        0.0%
BITSFR4              0      0       0       5        0.0%
SFR4                 0      0       0       5        0.0%
BITBANK1            50      0       0       6        0.0%
BITSFR5              0      0       0       6        0.0%
SFR5                 0      0       0       6        0.0%
BANK1               50      0       0       7        0.0%
BITSFR6              0      0       0       7        0.0%
SFR6                 0      0       0       7        0.0%
BITBANK2            50      0       0       8        0.0%
BITSFR7              0      0       0       8        0.0%
SFR7                 0      0       0       8        0.0%
BANK2               50      0       0       9        0.0%
BITSFR8              0      0       0       9        0.0%
SFR8                 0      0       0       9        0.0%
BITBANK3            50      0       0      10        0.0%
BITSFR9              0      0       0      10        0.0%
SFR9                 0      0       0      10        0.0%
BANK3               50      0       0      11        0.0%
BITSFR10             0      0       0      11        0.0%
SFR10                0      0       0      11        0.0%
BITBANK4            50      0       0      12        0.0%
BITSFR11             0      0       0      12        0.0%
SFR11                0      0       0      12        0.0%
BANK4               50      0       0      13        0.0%
BITSFR12             0      0       0      13        0.0%
SFR12                0      0       0      13        0.0%
BITBANK5            50      0       0      14        0.0%
BITSFR13             0      0       0      14        0.0%
SFR13                0      0       0      14        0.0%
BANK5               50      0       0      15        0.0%
BITSFR14             0      0       0      15        0.0%
SFR14                0      0       0      15        0.0%
BITBANK6            50      0       0      16        0.0%
BITSFR15             0      0       0      16        0.0%
SFR15                0      0       0      16        0.0%
BANK6               50      0       0      17        0.0%
BITSFR16             0      0       0      17        0.0%
SFR16                0      0       0      17        0.0%
BITBANK7            50      0       0      18        0.0%
BITSFR17             0      0       0      18        0.0%
SFR17                0      0       0      18        0.0%
BANK7               50      0       0      19        0.0%
BITSFR18             0      0       0      19        0.0%
SFR18                0      0       0      19        0.0%
BITSFR19             0      0       0      20        0.0%
SFR19                0      0       0      20        0.0%
ABS                  0      0       0      20        0.0%
BITBANK8            50      0       0      21        0.0%
BITSFR20             0      0       0      21        0.0%
SFR20                0      0       0      21        0.0%
BANK8               50      0       0      22        0.0%
BITSFR21             0      0       0      22        0.0%
SFR21                0      0       0      22        0.0%
BITBANK9            50      0       0      23        0.0%
BITSFR22             0      0       0      23        0.0%
SFR22                0      0       0      23        0.0%
BANK9               50      0       0      24        0.0%
BITSFR23             0      0       0      24        0.0%
SFR23                0      0       0      24        0.0%
BITBANK10           50      0       0      25        0.0%
BITSFR24             0      0       0      25        0.0%
SFR24                0      0       0      25        0.0%
BANK10              50      0       0      26        0.0%
BITSFR25             0      0       0      26        0.0%
SFR25                0      0       0      26        0.0%
BITBANK11           50      0       0      27        0.0%
BITSFR26             0      0       0      27        0.0%
SFR26                0      0       0      27        0.0%
BANK11              50      0       0      28        0.0%
BITSFR27             0      0       0      28        0.0%
SFR27                0      0       0      28        0.0%
BITBANK12           30      0       0      29        0.0%
BITSFR28             0      0       0      29        0.0%
SFR28                0      0       0      29        0.0%
BANK12              30      0       0      30        0.0%
BITSFR29             0      0       0      30        0.0%
SFR29                0      0       0      30        0.0%
BITSFR30             0      0       0      31        0.0%
SFR30                0      0       0      31        0.0%
DATA                 0      0       0      31        0.0%
BITSFR31             0      0       0      32        0.0%
SFR31                0      0       0      32        0.0%


Microchip Technology PIC Macro Assembler V2.10 build 88905656 
Symbol Table                                                                                   Tue Apr 21 14:04:23 2020

                      l5 07FB                      l514 07FB                     _main 07FB  
                   btemp 007E                     start 0002                    ?_main 0000  
                  wtemp0 007E          __initialization 07FD             __end_of_main 07FD  
                 ??_main 0000  __end_of__initialization 07FD           __pcstackCOMMON 0000  
             __pmaintext 07FB     end_of_initialization 07FD      start_initialization 07FD  
              ___latbits 0002            __size_of_main 0002  
